:107C0000112482E08093C00088E18093C10086E067
:107C10008093C20080E18093C400259A82E290E0C4
:107C2000CBD1853571F482E290E06FEFCDD114BEF7
:107C300089E2A9D18AE09AD150D181E080930802EB
:107C40000AC084B714BE81FFA4D18DE09CD184E02A
:107C50008DD110920802C0E0D0E0A3E0CA2EDD244E
:107C6000D394F5E0EF2EE1E1FE2E0CD1813429F41E
:107C700081E09AD183E0D8D089C0823419F484E1BC
:107C800093D184C0853419F485E08ED17FC08535C9
:107C900069F4F8D0082F10E0F5D090E0D82FCC2769
:107CA000C02BD12BCC0FDD1F79D170C0863529F4C4
:107CB00084E07AD180E0B8D069C0843609F037C05A
:107CC000E1D0E0D0B82EDED0FE01C0925700E8959A
:107CD00000E011E0D7D0F80181938F01BE16D1F7F3
:107CE0005DD107B600FCFDCFFE01A0E0B1E02C9114
:107CF00030E011968C91119790E0982F8827822B75
:107D0000932B12960C01D0925700E89511243296CD
:107D100081E0A038B80759F7FE01E0925700E895D6
:107D200007B600FCFDCFF0925700E8952FC08437CE
:107D3000A9F4A8D0A7D0A82EA5D030D1BA2CFE0186
:107D400001C0F8018F010F5F1F4F84916DD0BA946D
:107D5000C1F72196AA94CA0DD11D18C0853741F4E8
:107D60001DD18EE161D085E95FD08FE05DD00EC07E
:107D7000813521F488E007D111D108C08E3429F46F
:107D80008FE452D08BE450D052CF08D180E14CD058
:107D90006CCF2A984EBD0DB407FEFDCF292F332797
:107DA0002EBD0DB407FEFDCF8EBD0DB407FEFDCF79
:107DB0006EBD0DB407FEFDCF2A9A8EB5089540EF33
:107DC000E8CF60E04FE0E5CF0F931F93CF93DF93B1
:107DD000EC018B01672F7727F2DFCE010196602F30
:107DE000EEDFDF91CF911F910F9108950F931F93B5
:107DF000CF93DF93EC01E5DF90E0182F0027CE0151
:107E00000196DFDF90E0802B912BDF91CF911F91C6
:107E10000F910895BC0181E094E0D1DF81E094E00E
:107E2000D0DF8823D9F708951F93CF93DF93182FBE
:107E3000809108028823D1F080E294E0D7DF009798
:107E4000D9F384E294E0D2DFEC019C013770C901E0
:107E50008050904C612FB3DFBE016F5F7F4F84E293
:107E600094E0B2DF80E290E0D5DF06C08091C000F0
:107E700085FFFCCF1093C600DF91CF911F9108952D
:107E8000A89508951F93CF93DF93FADF809108029E
:107E90008823C1F086E294E0A9DF0097D9F388E255
:107EA00094E0A4DFEC0197708050904A8ADF182F8D
:107EB000BE016F5F7F4F88E294E086DF80E490E050
:107EC000A9DF06C08091C00087FFFCCF1091C600DB
:107ED000812FDF91CF911F910895CF93DF932A9A3D
:107EE0008CE284B980E58CBD8DB581608DBD8FE35A
:107EF0009CE90197F1F700C0000080E090E060E8A5
:107F00005EDF8FE39CE90197F1F700C0000080E09D
:107F100090E001C0CE01EC01219640964DD0682F33
:107F2000CE014DDFC231D105A9F780E094E061E0D8
:107F300046DF84E094E060EF42DF81E090E06ADFBA
:107F400082E090E067DFCFEFDFEF9ADF83E094E03D
:107F500038DF873141F08FE99CE80197F1F700C0E5
:107F60000000219791F7DF91CF9108952FEF33EF24
:107F700041E0215030404040E1F700C000001D9A30
:107F80008150A1F77DCFE0E6F0E098E19083808317
:107F9000089580E0F8DFEE27FF27099473DF803231
:107FA00009F0F7DF84E140CF1F93182F6BDF1150EA
:107FB000E9F7F4DF1F910895F999FECF92BD81BDD5
:107FC000F89A992780B50895262FF999FECF1FBA00
:107FD00092BD81BD20BD0FB6F894FA9AF99A0FBEF2
:047FE0000196089569
:0400000300007C007D
:00000001FF
