:10780000112482E08093C00088E18093C10086E06B
:107810008093C20080E18093C400259A82E290E0C8
:1078200043D2853571F482E290E06FEF45D214BE09
:1078300089E223D28AE014D2CAD181E0809308027F
:107840000AC084B714BE81FF1ED28DE016D284E038
:1078500007D210920802C0E0D0E0A3E0CA2EDD24D7
:10786000D394F5E0EF2EE1E1FE2E96D1813429F498
:1078700081E014D283E02AD18DC0823419F484E1EE
:107880000DD288C0853419F485E008D283C08535CF
:1078900069F482D1082F10E07FD190E0D82FCC2757
:1078A000C02BD12BCC0FDD1FF3D174C0863529F44A
:1078B00084E0F4D180E00AD16DC0843609F034C090
:1078C0006BD16AD1082F68D1FE01C0925700E895AC
:1078D000602F70E080E091E014D1DAD107B600FCAF
:1078E000FDCFFE01A0E0B1E02C9130E011968C912B
:1078F000119790E0982F8827822B932B12960C01DA
:10790000D0925700E8951124329681E0A038B8074C
:1079100059F7FE01E0925700E89507B600FCFDCF4D
:10792000F0925700E89536C08437E1F435D134D170
:10793000082F32D1ADD1602F70E0802FFE01A0E082
:10794000B1E001C0F9019F012F5F3F4FE491ED933A
:107950008150C1F721960150C00FD11D80E091E008
:1079600069D018C0853741F493D18EE1AFD085E955
:10797000ADD08FE0ABD00EC0813521F488E07DD151
:1079800087D108C08E3429F48FE4A0D08BE49ED038
:107990004ECF7ED180E19AD068CF2A984EBD0DB4EB
:1079A00007FEFDCF292F33272EBD0DB407FEFDCFD7
:1079B0008EBD0DB407FEFDCF6EBD0DB407FEFDCF2D
:1079C0002A9A8EB5089540EFE8CF60E04FE0E5CF0A
:1079D0000F931F93CF93DF93EC018B01672F7727D2
:1079E000F2DFCE010196602FEEDFDF91CF911F9184
:1079F0000F9108950F931F93CF93DF93EC01E5DF71
:107A000090E0182F0027CE010196DFDF90E0802B59
:107A1000912BDF91CF911F910F910895BC0181E0CF
:107A200094E0D1DF81E094E0D0DF8823D9F7089596
:107A3000A8950895CF92DF92EF92FF920F931F9334
:107A4000CF93DF937C01EB01F3DF80910802882361
:107A500091F180E294E0CEDF8C179D07D0F384E2B1
:107A600094E0C8DF6C0100E010E009C0F70161910B
:107A70007F0197708050904CA6DF0F5F1F4FC801A9
:107A80008C0D9D1D0C171D0788F3B6016C0F7D1F13
:107A900084E294E09DDF80E290E0C0DFC9DF0DC0AA
:107AA0008091C00085FFFCCFF70181917F01809319
:107AB000C600BEDF2197209799F7DF91CF911F91E4
:107AC0000F91FF90EF90DF90CF900895DF93CF93C9
:107AD0000F92CDB7DEB7898380910802882331F0F9
:107AE000CE01019661E070E0A5DF07C08091C00083
:107AF00085FFFCCF89818093C6000F90CF91DF91E5
:107B00000895CF92DF92EF92FF920F931F93CF933E
:107B1000DF93EC018B018CDF80910802882381F1D7
:107B200086E294E067DF80179107D0F388E294E063
:107B300061DF6C01EE24FF2408C097708050904AEA
:107B400044DF89930894E11CF11CC7018C0D9D1D35
:107B5000E016F10690F3B601600F711F88E294E021
:107B600037DF80E490E05ADF63DF0DC08091C00012
:107B700087FFFCCF8091C60089935ADF01501040E7
:107B80000115110599F7DF91CF911F910F91FF908A
:107B9000EF90DF90CF900895DF93CF930F92CDB702
:107BA000DEB746DF80910802882339F0CE010196C6
:107BB00061E070E0A6DF898106C08091C00087FF88
:107BC000FCCF8091C6000F90CF91DF910895CF93A5
:107BD000DF932A9A8CE284B980E58CBD8DB58160F3
:107BE0008DBD8FE39CE90197F1F700C0000080E0B4
:107BF00090E060E8E8DE8FE39CE90197F1F700C0D0
:107C0000000080E090E001C0CE01EC01219640969A
:107C10004BD0682FCE01D7DEC231D105A9F780E065
:107C200094E061E0D0DE84E094E060EFCCDE81E0BF
:107C300090E0F4DE82E090E0F1DECFEFDFEFF8DEFF
:107C400083E094E0C2DE873141F08FE99CE8019740
:107C5000F1F700C00000219791F7DF91CF910895CF
:107C60002FEF33EF41E0215030404040E1F700C0BA
:107C700000001D9A8150A1F7DBCEE0E6F0E098E12C
:107C800090838083089580E0F8DFEE27FF27099432
:107C900083DF803209F0F7DF84E118CF682F70E0CE
:107CA00080E192E02EDFF4CFF999FECF92BD81BD45
:107CB000F89A992780B50895262FF999FECF1FBA13
:107CC00092BD81BD20BD0FB6F894FA9AF99A0FBE05
:047CD000019608957C
:040000030000780081
:00000001FF
